:100000000C9426180C9479220C9452220C944E18BD
:100010000C944E180C944E180C944E180C944E18C8
:100020000C944E180C944E180C944E180C944E18B8
:100030000C944E180C944E180C944E180C944E18A8
:100040000C9408220C944E180C94C6200C94A020FA
:100050000C944E180C944E180C944E180C944E1888
:100060000C944E180C944E181010205F00000000E5
:100070000000000000000000000000000000000080
:100080000000000000000000000000000000000070
:1000900007000F800F800F800F800F800700070080
:1000A00000000000070007000700000000000E38F5
:1000B0000E380E380E380630000000000000000038
:1000C00000000000000000000000000000000C30F4
:1000D0000C300C307FFE7FFE0C300C300C300C30BE
:1000E0007FFE7FFE0C300C300C3000000000024020
:1000F00002400FF81FF81A401A401FF00FF802587C
:1001000002581FF81FF002400240000000000000EB
:1001100000000E100E300E7000E001C003800700DA
:100120000E700C700870000000000000000000005D
:100130000F001980198019800F000F080F9819F807
:1001400018F018E019F00F980000000000000000FF
:100150000700070007000E0000000000000000007C
:10016000000000000000000000000000000000008F
:1001700000F001C0038007000E000E000E000E000C
:100180000700038001C000F0000000000000000034
:100190000F00038001C000E000700070007000706C
:1001A00000E001C003800F0000000000000000001C
:1001B00001801188099007E007E03FFC3FFC07E061
:1001C00007E0099011880180000000000000000095
:1001D000000000000180018001800FF00FF001801D
:1001E000018001800000000000000000000000000D
:1001F00000000000000000000000000000000000FF
:1002000000000700070007000E00000000000000CB
:10021000000000000000000000001FF81FF80000B0
:1002200000000000000000000000000000000000CE
:1002300000000000000000000000000000000000BE
:100240000000070007000700000000000000000099
:1002500000020006000E001C0038007000E001C023
:10026000038007000E001C000000000000000000DA
:100270000FF01C381C781CF81CF81DB81DB81F386E
:100280001F381E381C380FF000000000000000006E
:100290000180018003801F801F8003800380038012
:1002A0000380038003801FF00000000000000000B6
:1002B0000FE01C701C380038007000E001C00380A3
:1002C00007000E381C381FF8000000000000000076
:1002D0000FE01C701C380038007003C003C00070B1
:1002E00000381C381C700FE0000000000000000007
:1002F00000E001E003E006E00CE018E01FF81FF862
:1003000000E000E000E003F8000000000000000052
:100310001FF81C001C001C001C001FE01FF00078D0
:1003200000381C381C700FE00000000000000000C6
:1003300003E007000E001C001C001FF01FF81C3813
:100340001C381C381C380FF00000000000000000B2
:100350001FFC1C1C1C1C1C1C001C0038007000E036
:1003600001C0038003800380000000000000000043
:100370000FF01C381C381C381F3807E007E01CF849
:100380001C381C381C380FF0000000000000000072
:100390000FF01C381C381C381C381FF80FF80038B8
:1003A0000038007000E007C00000000000000000FE
:1003B0000000000003800380038000000000038031
:1003C0000380038000000000000000000000000027
:1003D0000000000003800380038000000000038011
:1003E0000380038007000000000000000000007090
:1003F00000E001C0038007000E001C001C000E007E
:100400000700038001C000E0007000000000000051
:100410000000000000003FFC3FFC000000003FFC2B
:100420003FFC0000000000000000000000001C0075
:100430000E000700038001C000E00070007000E0C3
:1004400001C0038007000E001C000000000003C074
:100450000FF01E7818380038007000E001C001C0AD
:100460000000000001C001C001C0000000000FF842
:100470001C1C1C1C1C1C1C1C1CFC1CFC1CFC1CFC3C
:100480001C001C001C001FF007F80000000000000A
:1004900003C007E00E701C381C381C381C381FF8CD
:1004A0001C381C381C381C380000000000000000FC
:1004B0001FF00E380E380E380E380FF00FF00E38D1
:1004C0000E380E380E381FF000000000000000004B
:1004D00007F00E381C381C001C001C001C001C00FF
:1004E0001C001C380E3807F000000000000000005F
:1004F0001FE00E700E380E380E380E380E380E38DB
:100500000E380E380E701FE00000000000000000E2
:100510001FF80E180E080E000E300FF00FF00E3000
:100520000E000E080E181FF800000000000000006A
:100530001FF80E180E080E000E300FF00FF00E30E0
:100540000E000E000E001F00000000000000000062
:1005500007F00E381C381C381C001C001C001CF84E
:100560001C381C380E3807F800000000000000009E
:100570001C701C701C701C701C701FF01FF01C7015
:100580001C701C701C701C7000000000000000003B
:100590000FE00380038003800380038003800380D7
:1005A0000380038003800FE00000000000000000D3
:1005B00001FC0070007000700070007000703870F6
:1005C0003870387038700FE0000000000000000044
:1005D0001E380E380E700EE00FC00F800F800FC057
:1005E0000EE00E700E381E38000000000000000003
:1005F0001F000E000E000E000E000E000E000E007A
:100600000E080E180E381FF8000000000000000051
:100610001C1C1E3C1F7C1FFC1FFC1DDC1C9C1C1C8E
:100620001C1C1C1C1C1C1C1C0000000000000000EA
:100630001C1C1C1C1E1C1F1C1F9C1DDC1CFC1C7C71
:100640001C3C1C1C1C1C1C1C0000000000000000AA
:1006500003E007F00E381C1C1C1C1C1C1C1C1C1C62
:100660001C1C0E3807F003E0000000000000000032
:100670001FF00E380E380E380E380FF00FF00E0047
:100680000E000E000E001F00000000000000000021
:1006900003E00F780E381C1C1C1C1C1C1C1C1C7C32
:1006A0001CFC0FF80FF8003800FC000000000000F0
:1006B0001FF00E380E380E380E380FF00FF00E7097
:1006C0000E380E380E381E38000000000000000002
:1006D0000FF01C381C381C381C000FE007F00038E5
:1006E0001C381C381C380FF000000000000000000F
:1006F0001FFC19CC11C401C001C001C001C001C060
:1007000001C001C001C007F00000000000000000AF
:100710001C701C701C701C701C701C701C701C7079
:100720001C701C701C700FE0000000000000000036
:100730001C701C701C701C701C701C701C701C7059
:100740001C700EE007C003800000000000000000E5
:100750001C1C1C1C1C1C1C1C1C1C1C9C1C9C1C9C59
:100760000FF80FF80770077000000000000000008D
:100770001C701C701C700EE007C00380038007C053
:100780000EE01C701C701C700000000000000000D7
:100790001C701C701C701C701C700EE007C0038065
:1007A0000380038003800FE00000000000000000D1
:1007B0001FF81C381838107000E001C003800700D3
:1007C0000E081C181C381FF8000000000000000074
:1007D00007F00700070007000700070007000700F1
:1007E00007000700070007F00000000000000000FD
:1007F000100018001C000E000700038001C000E07C
:1008000000700038001C000700000000000000001D
:1008100007F00070007000700070007000700070D1
:1008200000700070007007F0000000000000018000
:1008300003C007E00E701C3800000000000000003C
:1008400000000000000000000000000000000000A8
:100850000000000000000000000000000000000098
:1008600000000000000000007FFF7FFF000000008C
:100870001C001C0007000700000000000000000032
:100880000000000000000000000000000000000068
:1008900000000000000000000FE0007000700FF08A
:1008A0001C701C701C700FD80000000000000000BD
:1008B0001E000E000E000E000FF00E380E380E381F
:1008C0000E380E380E381BF000000000000000004B
:1008D00000000000000000000FE01C701C701C00F5
:1008E0001C001C701C700FE00000000000000000E5
:1008F00000F80070007000700FF01C701C701C700D
:100900001C701C701C700FD800000000000000005C
:1009100000000000000000000FE01C701C701FF0C1
:100920001C001C701C700FE00000000000000000A4
:1009300003E007700770070007001FE01FE00700D3
:100940000700070007001FC00000000000000000B3
:1009500000000000000000000FD81C701C701C700C
:100960001C700FF007F000701C700FE0000000001A
:100970001E000E000E000E000EF00F380F380E385D
:100980000E380E380E381E3800000000000000003F
:1009900001C001C001C000000FC001C001C001C002
:1009A00001C001C001C00FF80000000000000000FD
:1009B000007000700070000003F0007000700070A4
:1009C0000070007000701C700CF007E00000000068
:1009D0001E000E000E000E000E380E700EE00FC04E
:1009E0000EE00E700E381E380000000000000000FF
:1009F0000FC001C001C001C001C001C001C001C0E1
:100A000001C001C001C00FF800000000000000009C
:100A100000000000000000001FF81C9C1C9C1C9C97
:100A20001C9C1C9C1C9C1C9C0000000000000000E6
:100A300000000000000000001FE01C701C701C7013
:100A40001C701C701C701C70000000000000000076
:100A500000000000000000000FE01C701C701C7003
:100A60001C701C701C700FE00000000000000000F3
:100A700000000000000000001BF00E380E380E3899
:100A80000E380E380FF00E000E001F0000000000A0
:100A900000000000000000001FB038E038E038E03F
:100AA00038E038E01FE000E000E001F00000000066
:100AB00000000000000000001EF00FF80F380E00CC
:100AC0000E000E000E001F000000000000000000DD
:100AD00000000000000000000FE01C301C300F8000
:100AE00003E0187018700FE0000000000000000024
:100AF00000000100030007001FF0070007000700C7
:100B000007000770077003E000000000000000000D
:100B100000000000000000001C701C701C701C70A5
:100B20001C701C701C700FD800000000000000003A
:100B300000000000000000001C701C701C701C7085
:100B40001C700EE007C003800000000000000000E1
:100B500000000000000000001C1C1C1C1C1C1C9C35
:100B60001C9C0FF8077007700000000000000000D8
:100B700000000000000000001CE01CE00FC0078027
:100B800007800FC01CE01CE0000000000000000017
:100B900000000000000000000E380E380E380E383D
:100BA0000E3807F003E000E001C01F8000000000E5
:100BB00000000000000000001FE018E011C00380EA
:100BC00007000E201C601FE0000000000000000075
:100BD00001F803800380038007001C001C0007004D
:100BE00003800380038001F800000000000001C0C2
:100BF00001C001C001C001C001C001C001C001C0ED
:100C000001C001C001C001C001C00000000000001F
:100C10001F8001C001C001C000E00038003800E0C2
:100C200001C001C001C01F800000000000000000E2
:100C30001F1C3B9C39DC38F800000000000000005D
:100C40000000000000000000000000001820205FED
:100C50000000000000000000000000000000000094
:100C60000000000000000000000000000000000084
:100C70000000000000000000000000000000000074
:100C80000000000000000000000000000000000064
:100C90000000000000000000000000000000000054
:100CA0000000000000000000000000000000000044
:100CB000001800003C00003C00003C00003C00002C
:100CC0003C00003C00001C00001C00001800001844
:100CD000000018000018000018000018000018009C
:100CE00000180000180000000000000000000000D4
:100CF0001800003C00003C00003C00000000000028
:100D000000000000000000000000000000000000E3
:100D100000C08001E1E001E1E001F1E000E0E0007D
:100D200060E000E0C000C1C001818003030000005A
:100D300000000000000000000000000000000000B3
:100D400000000000000000000000000000000000A3
:100D50000000000000000000000000000000000093
:100D60000000000000000000000000000000000083
:100D700000000000E18000E18000C18000C380002D
:100D8000C38000C3000FFFF01FFFF001C30001C3C9
:100D9000000183000187000187000186001FFFE03A
:100DA0001FFFE00186000386000306000306000320
:100DB0000E00030E00030C00000000000000000005
:100DC0000000000000000000000000000000000023
:100DD00000000000180000180000FE0001FF800362
:100DE0009BE00718C0071880071800071800039831
:100DF0000003F80000FC00007F00001FC00019C0C5
:100E00000018E00018600018600418600618E00F71
:100E100019C003FF8001FF0000180000180000182F
:100E200000000000000000000000000000000000C2
:100E300000000001C00007E0700770600E30E00C99
:100E400030C00C31800E338006730007E70003C604
:100E500000000E00000C00001C0000180000300014
:100E60000071E00063F000E63800C61801C6180102
:100E700086180386380303F00601E0000000000036
:100E80000000000000000000000000000000000062
:100E900000200001FC0003FE00038E000306000793
:100EA0000700030600038600038E0001DC0000F843
:100EB0000000F00003F00007B840071C600E1C7033
:100EC0000E0EE00C07C01C03C00C03800E07C00F01
:100ED0001EE007FCF003F8600000000000000000C6
:100EE0000000000000000000000000000000000002
:100EF000001800003C00003C00003C00001C00000A
:100F00000C00001800001800003000006000000015
:100F100000000000000000000000000000000000D1
:100F200000000000000000000000000000000000C1
:100F300000000000000000000000000000000000B1
:100F400000000000000000000000000000000000A1
:100F5000000100000700000F80001C0000380000A6
:100F6000700000700000E00000C00001C00001C07F
:100F700000018000018000038000038000038000E6
:100F800003800003800001800001800001C0000197
:100F9000C00000E00000E0000070000078000038B1
:100FA00000001C00000F000007800003000000008C
:100FB00000800000E00000F000007800001C00004D
:100FC0000E000007000007000003800003800001FE
:100FD000C00001C00000C00000C00000C00000E070
:100FE0000000E00000C00000C00001C00001C0001F
:100FF0000180000380000380000700000E00001E37
:1010000000003C0000780000F00000C000008000FC
:1010100000000000000000000000000000000000D0
:101020000000001C00001C00001C00041C1007181D
:101030007007C9F001FFC0003C00003C00007600D2
:1010400000630000E38001C1C00381C00080800014
:101050000000000000000000000000000000000090
:101060000000000000000000000000000000000080
:101070000000000000000000000000000000000070
:101080001C00001C00001C00001C00001C00001CB8
:1010900000001C0007FFF007FFF0001C00001C0010
:1010A000001C00001C00001C00001C00001C0000B4
:1010B0000000000000000000000000000000000030
:1010C0000000000000000000000000000000000020
:1010D0000000000000000000000000000000000010
:1010E0000000000000000000000000000000000000
:1010F00000000000000000000000000000000000F0
:10110000000000000000000000000600000F0000CA
:101110000F00000F0000070000030000060000069B
:1011200000000C000018000000000000000000009B
:1011300000000000000000000000000000000000AF
:10114000000000000000000000000000000000009F
:101150000000000003FFE003FFE0000000000000CB
:10116000000000000000000000000000000000007F
:10117000000000000000000000000000000000006F
:10118000000000000000000000000000000000005F
:10119000000000000000000000000000000000004F
:1011A000000000000000000000000000000000003F
:1011B000000000000000000000000000000000002F
:1011C000000000000000000000000000000C000013
:1011D0001E00001E00001E000000000000000000B5
:1011E00000000000000000000000000000000000FF
:1011F0000000400000E00000E00000C00001C0006E
:101200000180000380000300000700000700000EBB
:1012100000000E00001C00001C0000380000380018
:1012200000300000700000600000E00000C000011D
:10123000C00001800003800003800007000001005F
:10124000000000000000000000000000000000009E
:1012500000100000FC0001FE0003C70003838007AC
:1012600001800601C00603C00E07C00E0EC00E1C92
:10127000E00C18E00C38E00E70E00EE0E00EC0C0AC
:101280000FC0C00780C00701C0070180038380032F
:10129000C70000FE00007C0000000000000000000D
:1012A000000000000000000000000000000000003E
:1012B000000000000E00003E0001FE0000C600001D
:1012C00006000006000006000006000006000006FA
:1012D00000000600000600000600000600000600F0
:1012E00000060000060000060000060000060000E0
:1012F00006000006000006000000000000000000DC
:1013000000000000000000000000000000000000DD
:1013100000100000FE0001FF000387800701C002EB
:1013200001C00001C00000C00001C00001C00003F6
:1013300080000380000700000E00001C0000380041
:1013400000700000E00001C000038000038000077F
:10135000002007FFC007FFC00000000000000000E1
:10136000000000000000000000000000000000007D
:1013700000000000FC0003FF0007070002038000DC
:101380000180000180000180000380000700001E32
:1013900000007C00007F000007800003800001C087
:1013A0000001C00001C00001C00201C002038007AB
:1013B000878003FF0001FC00000000000000000027
:1013C000000000000000000000000000000000001D
:1013D000000000000700000F00000F00001F0000C9
:1013E0003F0000370000670000670000C70001C72A
:1013F000000187000307000707000607000FFFE052
:101400000FFFE00FFFE000070000070000070000EB
:1014100007000007000007000000000000000000B7
:1014200000000000000000000000000000000000BC
:1014300000000003FFC003FFC0030000030000031F
:10144000000003000003000007000007FE0007FF84
:10145000000787800701C00001C00000C00000E055
:101460000000E00000E00000C00201C00E01C00763
:10147000878003FF0001FE00000000000000000064
:10148000000000000000000000000000000000005C
:10149000000800007F0000FFC001C18003808003BE
:1014A0000000070000070000060000063E0006FFDF
:1014B0000007C7800781800701C00600C00600C082
:1014C0000600C00600C00700C00301C00381C001C0
:1014D000C38000FF00007E0000000000000000004C
:1014E00000000000000000000000000000000000FC
:1014F00000000007FFC007FFC00001C0000380001C
:101500000380000300000700000700000E00000E2B
:1015100000000C00001C00001C0000380000380017
:1015200000380000700000700000700000E0000053
:10153000E00000E00001C00000000000000000002A
:10154000000000000000000000000000000000009B
:1015500000180000FE0001FF0003838003018007E4
:1015600001C00701C00301C003838001C70000FE62
:1015700000007C0001FF0003C7800703800701C053
:101580000600C00E00E00E00C00600C00701C00744
:10159000838003FF8000FE000000000000000000C8
:1015A000000000000000000000000000000000003B
:1015B00000100000FE0001FF000387800703800782
:1015C00001C00601C00600C00600C00600C007003A
:1015D000C00701C00383C003FEC000FCC00020C0E0
:1015E0000001C00001C00001C000038002038003AD
:1015F0000F0007FE0001F8000000000000000000DE
:1016000000000000000000000000000000000000DA
:10161000000000000000000000001800003C000076
:101620003C00003C00000000000000000000000042
:101630000000000000000000000000000000180092
:10164000003C00003C00003C0000000000000000E6
:10165000000000000000000000000000000000008A
:10166000000000000000000000000000000000007A
:10167000000000000000000000000C00001E000040
:101680001E00001E0000000000000000000000001E
:1016900000000000000000000000000000000C003E
:1016A000001E00001E00001E00000E0000060000CC
:1016B0000C00000C000018000030000000000000CA
:1016C000000000000000000000000000000000001A
:1016D00000000000000000000000000000002000EA
:1016E00000E00003E0000F80003E0000F80003E08F
:1016F000000F80001E00001E00000F800003E000AD
:1017000000F000007C00001F000007C00001E000A6
:1017100000E00000200000000000000000000000C9
:1017200000000000000000000000000000000000B9
:1017300000000000000000000000000000000000A9
:10174000000000000007FFF007FFF00000000000AD
:101750000000000000000000000007FFF007FFF09D
:1017600007FFF00000000000000000000000000083
:101770000000000000000000000000000000000069
:101780000000000000000000000000000000000059
:101790000000000000000000000000000800000E33
:1017A00000000F800003E00000F800003E00000F82
:1017B000000003C00000E00000E00003C0000F8054
:1017C000003E0000780001F00007C0001F00001C70
:1017D00000001800000000000000000000000000F1
:1017E00000000000000000000000000000000000F9
:1017F000000000003E0000FF8001FFC00781C00321
:1018000000E00100E00000E00000E00000E0000176
:10181000E00003C0000780000700000E00000C007D
:10182000000C00001C00001C000000000000000074
:101830000000000C00001E00001E00001E00000042
:101840000000000000000000000000000000000098
:10185000000000001C0000FF0001E7800381C007BA
:1018600000E00600600E00600C03E00C1FE01C3C72
:10187000601C70601860601860601C60601C70E024
:101880001C79E00C3FE00C0E000E00000700000386
:10189000800003C0C000FFC0007F80000000000087
:1018A0000000000000000000000000000000000038
:1018B0000020000030000030000030000078000000
:1018C000780000780000FC0000CC0000CE0001860B
:1018D0000001860001870003030003038003FF80EB
:1018E00007FF800601C00E01C00E00C00C00E01C06
:1018F00000E01C00701800700000000000000000F4
:1019000000000000000000000000000000000000D7
:101910000000000FFE000FFF000C07800C01C00C40
:1019200001C00C00C00C01C00C01C00C03800FFFF3
:10193000000FFE000FFF800C03C00C01C00C00E084
:101940000C00E00C00E00C00E00C00E00C01C00C0E
:1019500007C00FFF800FFC00000000000000000027
:101960000000000000000000000000000000000077
:10197000000800007F0001FFC003C1E00780E0070E
:1019800000700E00000E00000E00000C00000C00A5
:10199000000C00000C00000C00000C00000C00000B
:1019A0000E00000E00000700000700400380E00367
:1019B000C1C000FF80007F000000000000000000A8
:1019C0000000000000000000000000000000000017
:1019D0000000000FFC000FFF000C0F800C03800CB8
:1019E00001C00C01C00C00E00C00E00C00E00C0099
:1019F000E00C00E00C00600C00600C00E00C00E06B
:101A00000C00E00C00C00C01C00C01C00C03800CE9
:101A10000F000FFE000FF8000000000000000000A3
:101A200000000000000000000000000000000000B6
:101A30000000000FFFE00FFFE00E00000E00000EA0
:101A400000000E00000E00000E00000E00000E0050
:101A5000000FFF000FFF000E00000E00000E000040
:101A60000E00000E00000E00000E00000E00000E22
:101A700000000FFFC00FFFC00000000000000000CA
:101A80000000000000000000000000000000000056
:101A900000000007FFC007FFC007000007000007A5
:101AA000000007000007000007000007000007FF14
:101AB0000007FF0007FF0007000007000007000005
:101AC00007000007000007000007000007000007EC
:101AD00000000700000700000000000000000000F8
:101AE00000000000000000000000000000000000F6
:101AF000000400007F8000FFC001E0E0038070036D
:101B00008020070000070000060000060000060015
:101B1000000E00000E00000E03F00E03F006003071
:101B200006003007003007003003803003C030016A
:101B3000E0F000FFE0003F80000000000000000037
:101B40000000000000000000000000000000000095
:101B50000000000E00E00E00E00E00E00E00E00EBF
:101B600000E00E00E00E00E00E00E00E00E00E00CF
:101B7000E00FFFE00FFFE00E00E00E00E00E00E0DF
:101B80000E00E00E00E00E00E00E00E00E00E00EA1
:101B900000E00E00E00E00E0000000000000000089
:101BA0000000000000000000000000000000000035
:101BB00000000007FF8007FF8000300000300000B9
:101BC00030000030000030000030000030000030F5
:101BD0000000300000300000300000300000300015
:101BE0000030000030000030000030000030000005
:101BF000300007FF8007FF800000000000000000A9
:101C000000000000000000000000000000000000D4
:101C100000000000FFE000FFE000070000070000F8
:101C2000070000070000070000070000070000078A
:101C30000000070000070000070000070000070081
:101C4000000700000600000600000E00040E000F52
:101C50001C0007F80003F80000000000000000006E
:101C60000000000000000000000000000000000074
:101C70000200A00C01C00C03800C07800C07000CB4
:101C80000E000C1C000C38000C70000CE0000DC0A5
:101C9000000FE0000FE0000E70000C38000C3C005C
:101CA0000C1C000C0E000C0F000C07000C03800C29
:101CB00001C00C01E00C00F000000000000000007A
:101CC0000000000000000000000000000000000014
:101CD00000000007000007000007000007000007E1
:101CE00000000700000700000700000700000700D1
:101CF00000070000070000070000070000070000C1
:101D000007000007000007000007000007000007A9
:101D1000000007FFE007FFE00000000000000000F7
:101D200000000000000000000000000000000000B3
:101D30000000000C00600E00E00E00E00F01E00F5C
:101D400001E00F83E00F83600DC7600CC6600CEEEE
:101D5000600C6C600C78600C38600C30600C1060AB
:101D60000C00600C00600C00600C00600C00600C4B
:101D700000600C00600C006000000000000000002B
:101D80000000000000000000000000000000000053
:101D90000000000E00E00E00E00F00E00F80E00FFA
:101DA00080E00DC0E00DC0E00CE0E00C60E00C70E5
:101DB000E00C38E00C38E00C1CE00C1CE00C0EE0F1
:101DC0000C0EE00C07E00C03E00C03E00C01E00C4F
:101DD00001E00C00E00C00E000000000000000004A
:101DE00000000000000000000000000000000000F3
:101DF00000000000FE0001FF800383800701C00E89
:101E000000C00E00E00C00E01C00601C00601C0024
:101E1000701C00701C00701C00701C00701C0060A6
:101E20000C00600E00E00E00E00701C00781C00357
:101E3000C78001FF0000FE0000000000000000005D
:101E40000000000000000000000000000000000092
:101E50000000000FFF000FFF800E03C00E01C00E38
:101E600000E00E00E00E00E00E00E00E00E00E01CB
:101E7000C00FFF800FFF000FFC000E00000E0000DF
:101E80000E00000E00000E00000E00000E00000EFE
:101E900000000E00000E0000000000000000000026
:101EA0000000000000000000000000000000000032
:101EB000000800007F0000FFC001C1C00380E007F0
:101EC00000600700700600700E00300E00300E003B
:101ED000380E00380E00380E00380E00380E003074
:101EE0000600300700300700700300600380E00147
:101EF000E3C000FF80007E00001C00000C00000E0C
:101F000000000FF00007F0000000000000000000DB
:101F10000000000FFF000FFF800E03C00E01C00E77
:101F200000E00E00E00E00E00E00E00E01C00E0327
:101F3000C00FFF800FFF000FFC000E0C000E0E0004
:101F40000E07000E07000E03800E03800E01C00E68
:101F500001C00E00E00E00E00000000000000000E4
:101F60000000000000000000000000000000000071
:101F7000000000007F8000FFC001C0E0038060031C
:101F8000804003800003800003800001E00000F82F
:101F900000007E00001F800007C00001E00000F08C
:101FA0000000700000700000700200700700E00781
:101FB000C1E001FFC000FF000000000000000000C1
:101FC0000000000000000000000000000000000011
:101FD0000000000FFFF00FFFF000180000180000D5
:101FE0001800001800001800001800001800001861
:101FF0000000180000180000180000180000180069
:102000000018000018000018000018000018000058
:102010001800001800001800000000000000000078
:1020200000000000000000000000000000000000B0
:102030000000000E00600C00600C00600C00600CE2
:1020400000600C00600C00600C00600C00600C0074
:10205000600C00600C00600C00600C00600C006004
:102060000C00600E00E00E00E00E00E00701C0076B
:1020700083C003FF8000FE0000000000000000009D
:102080000000000000000000000000000000000050
:102090000000001C00700C00600E00E00E00E00666
:1020A00000C00701C00701C00301800381800383D2
:1020B0008001830001C30001C70000C60000E600E4
:1020C00000EE00006C00007C00007C000038000086
:1020D0003800003800001000000000000000000080
:1020E00000000000000000000000000000000000F0
:1020F0000000001800301810301C10301C18301C64
:1021000018700C38600C3C600C3C600C6C600E6C01
:10211000600E6E600666C006C6C006C6C006C7C0B2
:102120000783C00783C00783800383800301800384
:102130000180030180030180000000000000000016
:10214000000000000000000000000000000000008F
:102150000000200E00C00701C00701800383800338
:10216000830001C70001CE0000EE00007C00007C6F
:1021700000003800003800007C00007C0000EE0009
:1021800000CE0001C7000383800383800701C007DE
:1021900001C00E00E00E00F0000000000000000092
:1021A000000000000000000000000000000000002F
:1021B0000000080F00300700700380600380E0011A
:1021C000C0C001C1C000E1C000E38000738000779F
:1021D00000003F00003E00001E00001C00001C002C
:1021E000001C00001C00001C00001C00001C000063
:1021F0001C00001C00001C0000000000000000008B
:1022000000000000000000000000000000000000CE
:102210000000000FFFE00FFFE00001C00001C00060
:102220000380000300000700000E00000E00001CE9
:102230000000380000380000700000700000E0006E
:1022400001C00001C0000380000380000700000EF1
:1022500000100FFFE00FFFE0000000000000000092
:10226000000000000000000000000000000000006E
:1022700000000003FF8003FF800300000300000351
:10228000000003000003000003000003000003003F
:10229000000300000300000300000300000300002F
:1022A000030000030000030000030000030000031C
:1022B000000003000003000003000003000003000F
:1022C0000003FF8003FF800000000000000000000A
:1022D00000800003800001C00001C00000E0000099
:1022E000E0000070000070000038000038000018A6
:1022F00000001C00000C00000E000006000007009B
:102300000007000003800003800001C00001C0003E
:1023100000E00000E00000600000700000300000FD
:10232000200000000000000000000000000000008D
:1023300000000001FFC001FFC00001C00001C0009B
:1023400001C00001C00001C00001C00001C00001C7
:10235000C00001C00001C00001C00001C00001C0F8
:102360000001C00001C00001C00001C00001C000A8
:1023700001C00001C00001C00001C00001C0000197
:10238000C001FFC001FFC00000000000000000000D
:10239000000000000800001C00001E00003E0000BD
:1023A000770000630000E38000C1800181C00380EA
:1023B000800000000000000000000000000000009D
:1023C000000000000000000000000000000000000D
:1023D00000000000000000000000000000000000FD
:1023E00000000000000000000000000000000000ED
:1023F00000000000000000000000000000000000DD
:1024000000000000000000000000000000000000CC
:1024100000000000000000000000000000000000BC
:1024200000000000000000000000000000000000AC
:1024300000000000000000000FFFF00FFFF00000A0
:10244000000000000000000000000000000000008C
:10245000000000003C0000FE0001C70001830001F5
:10246000838001838001830001C70000FE00007C9F
:10247000000000000000000000000000000000005C
:10248000000000000000000000000000000000004C
:10249000000000000000000000000000000000003C
:1024A000000000000000000000000000000000002C
:1024B000000000000000000000000000000000001C
:1024C0000000000000000800007F0003FFC0018141
:1024D000E00100E0000060000060000060003FE0FC
:1024E00001FFE003C0600700600700600700E0072D
:1024F00001E00783E003FF6001FC600000000000D2
:1025000000000000000000000000000000000000CB
:102510000000000700000700000700000700000798
:102520000000070000070400073F00077FC007C145
:10253000C00780E00700F007007007007007007018
:102540000700700700700700700700700780E00741
:1025500080E007C3C0077F80063F00000000000046
:10256000000000000000000000000000000000006B
:10257000000000000000000000000000000000005B
:10258000000000000000000000FF0003FF80078340
:10259000C00700800E00800C00001C00001C000022
:1025A0001C00001C00001C00000E00000E000007B4
:1025B000018007C3C003FF8000FE00000000000090
:1025C000000000000000000000000000000000000B
:1025D0000000000000C00000C00000C00000C000FB
:1025E00000C00000C00020C001FCC003FEC0078383
:1025F000C00701C00E01C00E01C00E00C00C00C01B
:102600000C00C00E00C00E01C00E01C00E01C007BC
:1026100003C00787C003FEC000FCE000000000000C
:1026200000000000000000000000000000000000AA
:10263000000000000000000000000000000000009A
:10264000000000000000100000FE0001FF000383F6
:10265000800701C00600C00E00C00E00E00FFFE0C2
:102660000FFFE00E00000E00000E00000600000745
:10267000008003C1C001FF8000FF000000000000D7
:10268000000000000000000000000000000000004A
:10269000000000000FC0003FE000787000702000D4
:1026A000E02000E00000E00000E00000E0000FFF9C
:1026B000000FFF0000E00000E00000E00000E0008C
:1026C00000E00000E00000E00000E00000E00000AA
:1026D000E00000E00000E00000E00000000000007A
:1026E00000000000000000000000000000000000EA
:1026F00000000000000000000000000000000000DA
:10270000000000000000000000302001FCF003DFAA
:10271000F00707000603000E03800E038006030087
:10272000070700078F0003FE0003F80007000006FC
:10273000000007000007FF0003FFC00601E00C00D7
:10274000E00C00601C00E00E01C00FFF8003FF00E2
:10275000000000070000060000060000060000065A
:102760000000060000060000060400063F00067F89
:102770008006C3C00781C00701C00700C00600C0B3
:102780000600C00600C00600C00600C00600C00665
:1027900000C00600C00600C00600C0000000000027
:1027A0000000000000000000000000000000000029
:1027B0000010000038000038000038000000000061
:1027C000000000000000000003F80003F8000038DB
:1027D00000003800003800003800003800003800E1
:1027E00000380000380000380000380000380000D1
:1027F000380000380003FF8003FF80000000000065
:1028000000000000000000000000000000000000C8
:102810000000000000800001C00001C00001C000F5
:102820000000000000000000000000007FC0007FEA
:10283000C00001C00001C00001C00001C00001C013
:102840000001C00001C00001C00001C00001C000C3
:1028500001C00001C00001C00001C00001C00001B2
:10286000C001038003878003FF0000FE000010000A
:102870000000000F00000E00000E00000E00000E11
:1028800000000E00000E00000E00000E01E00E031E
:10289000800E07000E0E000E1C000E38000E700099
:1028A0000FF0000FB8000F3C000E1E000E0E000EC1
:1028B00007000E03800E03C00E01E00000000000C0
:1028C0000000000000000000000000000000000008
:1028D00000000007F80007F800003800003800008A
:1028E0003800003800003800003800003800003898
:1028F00000003800003800003800003800003800C0
:1029000000380000380000380000380000380000AF
:1029100038000038000FFFC00FFFC00000000000AB
:1029200000000000000000000000000000000000A7
:102930000000000000000000000000000000000097
:1029400000000000000020400EF9F00FFB700F1E89
:10295000300E1C380E1C380E1C380E1C380E1C385D
:102960000E1C380E1C380E1C380E1C380E1C380E6F
:102970001C380E1C380E1C380E1C380000000000DD
:102980000000000000000000000000000000000047
:102990000000000000000000000000000000000037
:1029A0000000000000000400031F80033FC003611B
:1029B000E003C0E00380E00380E003006003006008
:1029C0000300600300600300600300600300600315
:1029D000006003006003006003006000000000006E
:1029E00000000000000000000000000000000000E7
:1029F00000000000000000000000000000000000D7
:102A0000000000000000100000FE0001FF00038332
:102A1000800701C00E01E00E00E00E00E00C00E0B7
:102A20000C00600E00E00E00E00E00E00F00E0077A
:102A300001C003838001FF0000FE000000000000D1
:102A40000000000000000000000000000000000086
:102A50000000000000000000000000000000000076
:102A600000000000000008000E7F000EFF800F83B2
:102A7000C00F01C00E00E00E00E00E00E00E00E00E
:102A80000E00600E00E00E00E00E00E00E00E00F11
:102A900001C00F83800EFF800E7E000E00000E002E
:102AA000000E00000E00000E00000E0000000000EE
:102AB0000000000000000000000000000000000016
:102AC0000000000000000800007E7001FF7003C1DC
:102AD000F00380F00700F007007007007006007038
:102AE0000600700700700700700700F00700F00391
:102AF00081F003C3F001FF70007E700000700000E1
:102B00007000007000007000007000007000000095
:102B100000000000000000000000000000000000B5
:102B20000000000000000400073F80067FC006E0B0
:102B3000C007C080078000070000070000070000F2
:102B40000600000600000600000600000600000661
:102B50000000060000060000060000000000000063
:102B60000000000000000000000000000000000065
:102B70000000000000000000000000000000000055
:102B8000000000000000100000FF0001FF80038132
:102B9000C007008007008003800003E00001FC0004
:102BA000007F00000FC00003C00001C00400C00689
:102BB00001C00F83C003FF8001FE00000000000081
:102BC0000000000000000000000000000000000005
:102BD0000000000000000000000070000070000015
:102BE000700000600000600007FF8007FF80006049
:102BF0000000600000600000E00000E00000E00075
:102C000000E00000E00000E00000E00000E0000064
:102C100070400078C0007FE0003F800000000000AE
:102C200000000000000000000000000000000000A4
:102C30000000000000000000000000000000000094
:102C400000000000000000000E00C00E00C00E00DA
:102C5000C00E00C00E00C00E00C00E00C00E00C0AE
:102C60000E00C00E00C00E00C00E01C00701C0075C
:102C700003C00787C003FCC001F8E00000000000AB
:102C80000000000000000000000000000000000044
:102C90000000000000000000000000000000000034
:102CA000000000000008000007003007007003006B
:102CB000600380600380E001C0C001C0C001C1C0EA
:102CC00000E18000E38000630000770000760000F0
:102CD0003E00003E00001C00003C00000000000020
:102CE00000000000000000000000000000000000E4
:102CF00000000000000000000000000000000000D4
:102D000000000000000000001800301810301838D3
:102D1000701C38600C38600C3C600C6C600C6C6093
:102D20000E6C6006664006C6C006C6C007C7C00770
:102D300083C00383C0038380038180000000000000
:102D40000000000000000000000000000000000083
:102D50000000000000000000000000000000000073
:102D600000000000000000000700E00381C001C176
:102D7000C001C38000E700007700003E00003C0077
:102D8000001C00003E00007E0000770000E3800190
:102D9000C1C00181C00380E0070070000000000096
:102DA0000000000000000000000000000000000023
:102DB0000000000000000000000000000000000013
:102DC00000000000000000000E00E00E00E0070020
:102DD000C00700C00301C003818003818001C3805C
:102DE00001C30000C70000E70000E600007E00000D
:102DF0007C00003C00003C0000380000380000303F
:102E0000000070000860001FE0000FC0000200001A
:102E100000000000000000000000000000000000B2
:102E2000000000000000000007FFC007FFC0000313
:102E300080000780000700000E00001C0000380022
:102E400000780000700000E00001C000038000076F
:102E500080000F00200FFFE00FFFE00000000000E7
:102E60000000000000000000000000000000000062
:102E70000000000007C0001FC0003C000030000040
:102E800070000070000070000070000070000070A2
:102E90000000700000600000E00007C00007800034
:102EA00003C00000E000006000007000007000003F
:102EB0007000007000007000007000007000007072
:102EC00000007800003C00001FC00007C0000000A8
:102ED000000000001C00001C00001C00001C000082
:102EE0001C00001C00001C00001C00001C00001C3A
:102EF00000001C00001C00001C00001C00001C0046
:102F0000001C00001C00001C00001C00001C000035
:102F10001C00001C00001C00001C00001C00001C09
:102F200000001C00001C00001C00001C0000000031
:102F300000000001F80001FE00000F000007000083
:102F4000030000038000038000038000038000036F
:102F5000800003800003800001C00000F8000078BA
:102F60000000E00001800003800003800003800077
:102F700003800003800003800003800003800003BF
:102F800080000700000F0001FE0001F800000000B3
:102F90000000000000000000000000000000000031
:102FA0000000000000000000000000000000000021
:102FB0000000000000000003E02007F8700E3FE072
:102FC0000C0FC0000700000000000000000000001F
:102FD00000000000000000000000000000000000F1
:102FE00000000000000000000000000000000000E1
:102FF00000000000240027002A0000000000250037
:1030000028002B00000000002300260029000404F3
:103010000404040404040202020202020303030380
:10302000030301020408102040800102040810205C
:103030000102040810200000000800020100000343
:10304000040700000000000000004D2C11241FBEEA
:10305000CFEFD8E0DEBFCDBF11E0A0E0B1E0E8E502
:10306000F4E602C005900D92A83DB107D9F725E01E
:10307000A8EDB1E001C01D92A73EB207E1F718E14B
:10308000C6E2D8E104C02197FE010E94B82FC532E4
:10309000D107C9F70E942E240C942A320C94000008
:1030A000EF92FF920F931F93CF93DF9300D000D046
:1030B000CDB7DEB78C017A0180917F02813069F44F
:1030C0004091840250918502CA01801B910B4E19D8
:1030D0005F0979019C018B01BA018BB18F798BB9A2
:1030E0008AE22C833B836A8379830E94CB225E9A97
:1030F000812F0E94CB22802F0E94CB228F2D0E94F5
:10310000CB228E2D0E94CB225E988BE20E94CB2296
:103110005E9A7981872F0E94CB226A81862F0E9436
:10312000CB223B81832F0E94CB222C81822F0E94B5
:10313000CB225E988CE20E94CB225D9A0F900F907A
:103140000F900F90DF91CF911F910F91FF90EF9013
:10315000089520917F028091840290918502409190
:10316000800250918102211102C09C0102C09A018B
:10317000AC0160E070E080E090E00C9450180F9398
:103180001F93CF93DF93EA0157FF05C0640F751FAC
:10319000D195C195D1099B012C0F3D1FAC010E9417
:1031A00050188BB18F7D80648BB900E010E0809166
:1031B0007B020E94CB2280917C020E94CB220F5F77
:1031C0001F4FC017D1079CF75D9ADF91CF911F91D8
:1031D0000F910C94A9189BB19F7D90649BB90E949C
:1031E000CB225D9A0895CF93C82F892F0E94EB18A8
:1031F0008C2FCF910C94EB182F923F924F925F92AD
:103200006F927F928F929F92AF92BF92CF92DF92F6
:10321000EF92FF920F931F93CF93DF9300D000D0D4
:10322000CDB7DEB77C836B837A0130918E0220911B
:103230008B0290918A02082F10E0311104C1809115
:103240007F0281117FC0420F511D9A012150310927
:10325000AB01490F511D41505109B7018B819C8130
:103260000E94501820918A022695269526958091D5
:103270008B0290918C02091B1109289F9001112447
:10328000029FA001039F500D129F500D11248A012F
:103290000C5F1F4FE12CF12C80918A028695869558
:1032A000869590918B02899FC0011124E816F9063A
:1032B00088F5E0918802F0918902E00FF11FE49116
:1032C000F7E0CF2ED12CAE2EB12CC5010C2C02C0B4
:1032D000959587950A94E2F780FF08C080917B025C
:1032E00090E0982F882720917C0207C080917D0272
:1032F00090E0982F882720917E02822B0E94F3185D
:1033000051E0C51AD10808F70F5F1F4F9FEFE91A68
:10331000F90AC2CF0F900F900F900F90DF91CF91CD
:103320001F910F91FF90EF90DF90CF90BF90AF90E3
:103330009F908F907F906F905F904F903F902F90D5
:103340000C94A91896959695969580918C02081BD9
:103350001109929F90011124029F5001039FB00C0C
:10336000129FB00C1124A4E0AA0EB11C812C912C48
:1033700020918A02622F66956695669580918B02F0
:10338000689FC00111248816990620F670E0C401D8
:103390000E94422E6E0D7F1D4B815C81420F511D9C
:1033A000415051099B018B819C810E945018C09013
:1033B0008A02C694C694C694D12C2501B1E04B1A5A
:1033C0005108C114D104A1F1E0918802F091890261
:1033D000C2018C0D9D1DE80FF91FE491612C712C29
:1033E0000E2F10E0C801062C02C0959587950A940F
:1033F000E2F780FF08C080917B0290E0982F882739
:1034000020917C0207C080917D0290E0982F882750
:1034100020917E02822B0E94F318EFEF6E1A7E0A33
:10342000F8E06F167104F1F621E0C21AD108C9CF95
:1034300080918A0286958695869590E0A80EB91EA1
:10344000880E991E95CF96959695969580918C02AB
:10345000A801481B5109929F90011124429F8001AD
:10346000439F100D529F100D11240C5F1F4F6701D9
:1034700080918B0290E096012E193F092817390799
:1034800008F048CF6B807C80A12CB12C96012F5F77
:103490003F4F190180918A0286958695869590E026
:1034A000A816B9060CF03EC0E0918802F09189029E
:1034B000C501800F911FE80FF91FE491C30137E0A8
:1034C000832E912C4E2F50E05A8349832C015FEFBD
:1034D000451A550A9101A201B6010E94501889812E
:1034E0009A81082C02C0959587950A94E2F780FF8F
:1034F0000AC080917B0290E0982F882720917C025F
:10350000822B0E94F31881E0881A9108C201AFEF64
:103510008A169A06D9F6BFEFAB1ABB0AE8E06E0E20
:10352000711CB8CF080F191F6101A2CF0F931F9311
:10353000CF93DF93EA0157FF05C0840F951FD19504
:10354000C195D109AC014C0F5D1F9B010E94501821
:103550008BB18F7D80648BB900E010E080917B029D
:103560000E94CB2280917C020E94CB220F5F1F4FD2
:10357000C017D1079CF75D9ADF91CF911F910F91F2
:103580000C94A9183F924F925F926F927F928F9204
:103590009F92AF92BF92CF92DF92EF92FF920F93E2
:1035A0001F93CF93DF938C01EB017A0169016217BE
:1035B000730729F4481B590B0E94961A7BC0841785
:1035C000950731F4A901461B570B0E94BF1872C022
:1035D0008417950724F45A01A81AB90A03C05C019C
:1035E000A41AB50A0E151F0524F066246A94762CD9
:1035F00003C066246394712CCC15DD0524F44601C8
:103600008C1A9D0A03C04E018C189D08CC15DD054F
:1036100024F044244A94542C03C044244394512C51
:10362000A814B90420F57401F694E794F194E19498
:10363000F1089E01A801BE01C8010E9450183090F7
:103640007C0280917B020E94EB18832D0E94EB1874
:10365000CC15DD0509F441C0C40DD51DEA0CFB1CD9
:10366000F7FCE7CF060D171DE818F908E2CF650152
:10367000D694C794D194C194D1089E01A801BE01EB
:10368000C8010E94501830907C0280917B020E94F9
:10369000EB18832D0E94EB180E151F05F1F0060D97
:1036A000171DC80CD91CD7FCE8CFC40DD51DCA18EE
:1036B000DB08E3CFDF91CF911F910F91FF90EF9047
:1036C000DF90CF90BF90AF909F908F907F906F9042
:1036D0005F904F903F900C94A918DF91CF911F916C
:1036E0000F91FF90EF90DF90CF90BF90AF909F90A1
:1036F0008F907F906F905F904F903F9008951F93B1
:10370000CF93DF939C01F62F172F181619060CF094
:1037100047C0E091CE024091CF028E2F942F64E1FA
:1037200070E00E94562E629FE001639FD00D729F51
:10373000D00D112410937B02F0937C026091CC0297
:103740007091CD022E2F342F37FF02C02F5F3F4FD5
:1037500035952795C9018C1B9D0B2091D002309186
:10376000D102260F371FAC010E94C21A6091CC0211
:103770007091CD022091CE023091CF0237FF02C06E
:103780002F5F3F4F35952795C9018C0F9D1F2091C5
:10379000D0023091D102260F371FAC010E94C21A0D
:1037A000DF91CF911F9108958F929F92AF92BF9218
:1037B000CF92DF92EF92FF920F931F93CF93DF93FD
:1037C0008C015B017A01EC0109900020E9F7219757
:1037D000C81BD90B80917F02811122C06F307742C4
:1037E00081F420918002309181022F5F3F4F409100
:1037F0008A024C9FC0014D9F900D11245901A81AB7
:10380000B90AEEE0AE16E7E2BE0609F044C08091C8
:10381000800290918102A0918202B091830220C027
:103820006F30774281F420918402309185022F5FBE
:103830003F4F40918A024C9FC0014D9F900D112433
:103840005901A81AB90A8EE0A81687E2B80619F538
:103850008091840290918502A0918602B0918702A6
:103860000196A11DB11D20918A022C9F40012D9F20
:10387000900C1124092C000CAA08BB08BC01CD0136
:10388000681979098A099B0922E030E040E050E09C
:103890000E948C2E5901C12CD12CCC16DD069CF433
:1038A00080918A028C9DB0018D9D700D11246A0D4E
:1038B0007B1DA701F80181918F010E94FC18FFEF89
:1038C000CF1ADF0AEACFDF91CF911F910F91FF90BE
:1038D000EF90DF90CF90BF90AF909F908F90089522
:1038E000A7E7B2E052969C938E935197FC012491E6
:1038F00053962C9353973196E4915496EC935497A6
:10390000FC013296E4915596EC935597FC01339661
:10391000849156968C9308952F923F924F925F9286
:103920006F927F928F929F92AF92BF92CF92DF92CF
:10393000EF92FF920F931F93CF93DF936B017C0164
:103940004A015901202E8CE49CE00E94701C909248
:103950007B0280927C02312C07E010E08AE0482E46
:10396000512C612C712C832D032C000C990B209170
:10397000B4023091B502821793070CF051C0409108
:10398000B6025091B7022091B8023091B9023210BC
:1039900025C06091A6027091A70270937B0260938C
:1039A0007C02B801681B790B649FE001659FD00D14
:1039B000749FD00D1124C20FD31FC701B601A301FC
:1039C00092010E948C2E862FA501BE01805D0E946F
:1039D000FC1890927B0280927C0218C0B801681B90
:1039E000790B649FE001659FD00D749FD00D112469
:1039F000C20FD31FC701B601A30192010E948C2EF2
:103A0000862FA501BE01805D0E94FC18C701B6018A
:103A1000A30192010E948C2E69017A013394A3CFF5
:103A2000DF91CF911F910F91FF90EF90DF90CF909A
:103A3000BF90AF909F908F907F906F905F904F90CE
:103A40003F902F9008958F929F92AF92BF92CF9206
:103A5000DF92EF92FF920F931F93CF93DF937C013E
:103A60006B01EA018901481759072CF4982F8F2D13
:103A70007A01C92FD82F0C151D052CF49C2D8D2DE6
:103A80006801092F182F80917F02882379F05E0149
:103A9000AE18BF08B7FE03C08FEFA81AB80AB594D6
:103AA000A794812C912C0C191D0921C0C8018C19D7
:103AB0009D0997FD01964C0195948794A12CB12CFA
:103AC000CE19DF098A149B043CF1B5016C0D7D1DF4
:103AD000AE01C7010E94961AB8016A197B09AE01AE
:103AE000C7010E94961A8FEFA81AB80AEBCFA81444
:103AF000B90494F0A801B601C4018E0D9F1D0E9467
:103B0000BF18A801B601CE01881999090E94BF18F3
:103B10008FEF881A980AEBCFDF91CF911F910F9109
:103B2000FF90EF90DF90CF90BF90AF909F908F90DD
:103B30000895AF92BF92CF92DF92EF92FF920F93D0
:103B40001F93CF93DF93CDB7DEB75B01CDB6DEB663
:103B5000FC0104811581A8014F5F5F4F6DB77EB7EF
:103B6000641B750B0FB6F8947EBF0FBE6DBFEDB72B
:103B7000FEB731967F0130937B0220937C02452B68
:103B800081F0309771F00115110551F0FC01608151
:103B90007181A801C7010E94CA31F701E00FF11F2E
:103BA0001082A5016EE077E2C7010E94D41B0FB618
:103BB000F894DEBE0FBECDBEDF91CF911F910F9165
:103BC000FF90EF90DF90CF90BF90AF9008959BB1A2
:103BD0009F799BB90E94CB225D9A08950F93042F81
:103BE0004091A8025091A90220E030E00E948C1C74
:103BF0000F9108950F93042F4091AA025091AB02A8
:103C000020E230E00E948C1C0F9108950F93042F46
:103C10004091AC025091AD0220E430E00E948C1C37
:103C20000F9108950F931F93CF93DF931F92CDB7FA
:103C3000DEB78C0188E690E069830E94701C698180
:103C400067FF05C08091AE029091AF0204C08091E1
:103C5000A6029091A70290937B0280937C024091F0
:103C6000C2025091C3026091BC027091BD02C801B2
:103C70000E94D41B0F90DF91CF911F910F91089557
:103C80001F93CF93DF931F92CDB7DEB7182F88E62F
:103C900090E069830E94701C698167FF05C0809174
:103CA000AE029091AF0204C08091A6029091A7024B
:103CB00090937B0280937C024091C4025091C50294
:103CC0006091BC027091BD0280E3810F0E94FC18DC
:103CD0000F90DF91CF911F9108951F93CF93DF93A2
:103CE0001F92CDB7DEB7182F88E690E069830E9457
:103CF000701C698167FF05C08091AE029091AF0290
:103D000004C08091A6029091A70290937B028093B9
:103D10007C024091C6025091C7026091BC02709132
:103D2000BD0280E3810F0E94FC180F90DF91CF91BC
:103D30001F910895CF93DF93C82FD62F88E690E088
:103D40000E94701CD13029F08091AE029091AF0298
:103D500004C08091A6029091A70290937B02809369
:103D60007C024091C8025091C9022091BC0230915E
:103D7000BD028C2F6AE00E94342EB901805D0E9442
:103D8000FC18DD2329F08091AE029091AF0204C0AF
:103D90008091A6029091A70290937B0280937C026F
:103DA0004091C8025091C9022091C0023091C102D5
:103DB0008C2F6AE00E94342EB90180E3890F0E94A3
:103DC000FC18DF91CF9108959B01AC010E9450181F
:103DD000E7E7F2E0848190E0982F88272581822B05
:103DE0000E94F3180C94A9188F929F92AF92BF92E1
:103DF0000F931F93CF93DF93CDB7DEB7A1970FB685
:103E0000F894DEBF0FBECDBF19A2423008F44AE0DD
:103E10008E010F5D1F4F842E912CA12CB12CA5017A
:103E200094010E946A2EE62FB901CA0101501109BE
:103E3000EA3014F4E05D01C0E95CD801EC93232B77
:103E4000242B252B61F70115110571F0F801019064
:103E50000020E9F73197AF01401B510BB8018AED03
:103E600091E00E94451F02C080E090E0A1960FB64D
:103E7000F894DEBF0FBECDBFDF91CF911F910F91A0
:103E8000BF90AF909F908F900895CF92DF92EF9266
:103E9000FF920F931F93CF93DF936C017A018B01F5
:103EA000C0E0D0E0CE15DF0589F0D8016D918D011D
:103EB000D601ED91FC910190F081E02DC6010995AC
:103EC000892B11F47E0102C02196ECCFC701DF914E
:103ED000CF911F910F91FF90EF90DF90CF900895B9
:103EE000833081F028F4813099F08230A1F0089578
:103EF0008730A9F08830B9F08430D1F48091800007
:103F00008F7D03C0809180008F778093800008951B
:103F100084B58F7702C084B58F7D84BD089580916C
:103F2000B0008F7703C08091B0008F7D8093B00088
:103F30000895CF93DF93282F30E0F901EA5CFF4C1E
:103F40008491F901EE5DFF4CD491F901E25FFF4CE1
:103F5000C491CC2391F081110E94701FEC2FF0E0EE
:103F6000EE0FFF1FEC5FFF4CA591B491EC91ED2398
:103F700081E090E021F480E002C080E090E0DF91F9
:103F8000CF9108953FB7F8948091DF059091E005B7
:103F9000A091E105B091E20526B5A89B05C02F3F91
:103FA00019F00196A11DB11D3FBFBA2FA92F982F5F
:103FB0008827820F911DA11DB11DBC01CD0142E0DA
:103FC000660F771F881F991F4A95D1F708950895A6
:103FD000CF93DF938091D7050E94991FEC018091C8
:103FE000D6050E94991FCC0FDD1F8C2BE091D405C4
:103FF000EF7094E0E99FF0011124E80FF11DE35AFE
:10400000FE4FC081C093D405C0738091D8050E9433
:10401000991F019709F4C06880919505811135C0F9
:1040200080919605811131C08C2F8F77C7FD0AC012
:10403000803111F481E003C0803239F58FEF809335
:10404000960523C0803189F4809192058093930571
:104050008F5F8093920590919105981714F41092B8
:10406000920581E08093950510C0803271F48091B3
:1040700092058093930581508093920587FFF1CF3D
:104080008091910580939205ECCFDF91CF910895B7
:104090000E94B5318AED91E00E948E2321E0892BA8
:1040A00009F420E0822F0895EF92FF920F931F935F
:1040B000CF93DF93EC01198218821B821A821D8232
:1040C0001C8261157105A9F17B01FB0101900020A3
:1040D000E9F731978F01061B170BB8016F5F7F4F10
:1040E00080E090E00E94EB30009759F0998388833C
:1040F0001B830A832C813D81232B81F4FC011082D8
:104100000DC088819981009711F00E945330198267
:1041100018821D821C821B821A820BC01D830C8395
:10412000B701DF91CF911F910F91FF90EF900C9409
:10413000C331DF91CF911F910F91FF90EF900895C0
:104140001F920F920FB60F9211242F933F934F930C
:104150005F936F937F938F939F93AF93BF93EF93EF
:10416000FF938AED91E00E94A423FF91EF91BF910C
:10417000AF919F918F917F916F915F914F913F91FF
:104180002F910F900FBE0F901F9018951F920F92B6
:104190000FB60F9211242F938F939F93EF93FF935A
:1041A000E091EA01F091EB018081E091F001F09162
:1041B000F10182FD12C090818091F3018F5F8F73B6
:1041C0002091F401821751F0E091F301F0E0E65202
:1041D000FE4F958F8093F30101C08081FF91EF9195
:1041E0009F918F912F910F900FBE0F901F90189558
:1041F0001F93CF93DF93282F30E0F901EA5CFF4C47
:104200008491F901EE5DFF4CD491F901E25FFF4C1E
:10421000C491CC23C9F0162F81110E94701FEC2F7E
:10422000F0E0EE0FFF1FE650F04DA591B4918FB76F
:10423000F894111105C09C91ED2FE095E92302C07F
:10424000EC91ED2BEC938FBFDF91CF911F910895EF
:10425000CF93DF9390E0FC01EE5DFF4C2491FC01D5
:10426000E25FFF4C8491882361F190E0880F991FF1
:10427000FC01E051F04DC591D491FC01E650F04DA8
:10428000A591B491611109C09FB7F89488812095D8
:1042900082238883EC912E230BC0623061F49FB798
:1042A000F8943881822F809583238883EC912E2B7C
:1042B0002C939FBF06C08FB7F894E8812E2B2883DC
:1042C0008FBFDF91CF9108951F93CF93DF93182F66
:1042D000EB0161E00E942821209711F460E004C006
:1042E000CF3FD10539F461E0812FDF91CF911F914C
:1042F0000C94F820E12FF0E0EA5CFF4CE491E3300D
:10430000F9F048F4E130B9F0E230A1F584B580620B
:1043100084BDC8BD34C0E730E9F0E83019F1E430BD
:1043200049F580918000806280938000D0938B005B
:10433000C0938A0024C084B5806884BDC7BD1FC0F7
:1043400080918000806880938000D0938900C09322
:10435000880015C08091B00080688093B000C09341
:10436000B3000DC08091B00080628093B000C09314
:10437000B40005C0C038D1050CF0B5CFAFCFDF9188
:10438000CF911F9108958230910538F0880F991FC1
:10439000880F991F05970197F1F708958F929F92C3
:1043A000AF92BF92CF92DF92EF92FF926B017C01AE
:1043B0000E94C21F4B015C01C114D104E104F1044D
:1043C000F1F00E94C21FDC01CB0188199909AA09EA
:1043D000BB09883E9340A105B10570F321E0C21AE4
:1043E000D108E108F10888EE880E83E0981EA11C30
:1043F000B11CC114D104E104F10419F7DDCFFF9021
:10440000EF90DF90CF90BF90AF909F908F900895E6
:104410001F920F920FB60F9211242F933F938F93F9
:104420009F93AF93BF938091DB059091DC05A091A2
:10443000DD05B091DE053091DA0523E0230F2D373D
:1044400020F40196A11DB11D05C026E8230F029698
:10445000A11DB11D2093DA058093DB059093DC0547
:10446000A093DD05B093DE058091DF059091E00516
:10447000A091E105B091E2050196A11DB11D8093C7
:10448000DF059093E005A093E105B093E205BF91AD
:10449000AF919F918F913F912F910F900FBE0F90F1
:1044A0001F9018951F920F920FB60F9211242F9301
:1044B0003F934F935F936F937F938F939F93AF93AC
:1044C000BF93EF93FF93E0910201F09103010995EF
:1044D000FF91EF91BF91AF919F918F917F916F91DC
:1044E0005F914F913F912F910F900FBE0F901F90B2
:1044F00018951F920F920FB60F9211242F933F938E
:104500004F935F936F937F938F939F93AF93BF93DB
:10451000EF93FF93E0910001F09101010995FF9164
:10452000EF91BF91AF919F918F917F916F915F912B
:104530004F913F912F910F900FBE0F901F901895A4
:10454000CF93DF93EC01862F6883498361E00E945B
:10455000282161E089810E94282161E089810E94EF
:10456000F82060E089810E94F82060E088810E9444
:10457000F82061E08DE00E94F82060E08DE00E946C
:10458000F82061E08881DF91CF910C94F8200895A4
:104590008CBD9DBD08958EBD00000DB407FEFDCFFE
:1045A0008EB508954F925F926F927F92AF92BF92B5
:1045B000CF92DF92EF92FF920F931F93CF93DF93EF
:1045C000EC01DB01CA012A013B01770C4408542CA1
:1045D0003201AA24AA94BB24BA94CC24CA94DD2420
:1045E000DA94E12CF12C00E010E09A01AD01642D89
:1045F000742D842D942D0E94B32EE0E4AE2EF9E5A7
:10460000BF2EA3E7CA2EB7E0DB2E0E940E2F290192
:104610003A0160E088810E94F82080E791E00E94E2
:10462000C822842D0E94CB22852D0E94CB22862D6C
:104630000E94CB22872D0E94CB2280E00E94CB22B9
:1046400061E088810E94F8208CB58F7D8CBDDF9160
:10465000CF911F910F91FF90EF90DF90CF90BF907F
:10466000AF907F906F905F904F900895CF93CFB7AA
:10467000F8948091D905811127C0E8E1F0E3849195
:10468000ECE2F0E39491E82FF0E0EE0FFF1FE05131
:10469000F04DA591B491EC91E92321F461E08AE019
:1046A0000E94F82061E08AE00E9428218CB5806198
:1046B0008CBD8CB580648CBD61E08DE00E942821AA
:1046C00061E08BE00E9428218091D9058F5F809363
:1046D000D905CFBFCF910895FC01918D828D981798
:1046E00061F0828DDF01A80FB11D5D968C91928DD6
:1046F0009F5F9F73928F90E008958FEF9FEF0895D3
:10470000FC01918D828D981731F0828DE80FF11D9B
:10471000858D90E008958FEF9FEF0895FC01918DB6
:10472000228D892F90E0805C9F4F821B91098F73AF
:104730009927089580E090E0892B29F00E944A2073
:1047400081110C9400000895FC01848DDF01A80FF5
:10475000B11DA35ABF4F2C91848D90E001968F73A9
:104760009927848FA689B7892C93A089B1898C91C8
:1047700080648C93938D848D981306C00288F3898E
:10478000E02D80818F7D80830895EF92FF920F93BB
:104790001F93CF93DF93EC0181E0888F9B8D8C8DED
:1047A000981305C0E889F989808185FD24C0F62E1B
:1047B0000B8D10E00F5F1F4F0F731127E02E8C8DB4
:1047C000E8120CC00FB607FCFACFE889F98980819E
:1047D00085FFF5CFCE010E94A423F1CF8B8DFE0182
:1047E000E80FF11DE35AFF4FF0820B8FEA89FB8936
:1047F0008081806207C0EE89FF896083E889F9893A
:1048000080818064808381E090E0DF91CF911F916F
:104810000F91FF90EF900895CF93DF93EC01888D77
:104820008823C9F0EA89FB89808185FD05C0A889B4
:10483000B9898C9186FD0FC00FB607FCF5CF80813A
:1048400085FFF2CFA889B9898C9185FFEDCFCE0184
:104850000E94A423E7CFDF91CF910895CF93DF93F8
:10486000CDB7DEB72B970FB6F894DEBF0FBECDBF26
:10487000789484B5826084BD84B5816084BD85B53B
:10488000826085BD85B5816085BD80916E00816047
:1048900080936E00109281008091810082608093ED
:1048A00081008091810081608093810080918000EF
:1048B0008160809380008091B10084608093B1001A
:1048C0008091B00081608093B00080917A00846014
:1048D00080937A0080917A00826080937A00809140
:1048E0007A00816080937A0080917A00806880935A
:1048F0007A001092C1000E9436238AB1806F8AB973
:104900008FEE90E0A0E0B0E080938002909381026F
:10491000A0938202B09383028FE391E0A0E0B0E025
:104920008093840290938502A0938602B0938702BD
:104930005F9A81E080937F020E9436238CB58C7F42
:104940008CBD8DB581608DBD8BB18F7E80668BB93E
:104950006AE070E080E090E00E94CE215C9A6AE01C
:1049600070E080E090E00E94CE218BEC0E94E71D79
:1049700089E30E94EB188CE20E94EB1880E00E9411
:10498000EB1884E30E94EB1882E00E94EB188FEC96
:104990000E94E71D80E00E94EB1881EC0E94EB185A
:1049A00080E30E94EB1888EE0E94E71D85E80E94D4
:1049B000EB1880E00E94EB1888E70E94EB188AEE63
:1049C0000E94E71D80E00E94EB1880E00E94EB1837
:1049D0008DEE0E94E71D84E60E94EB1883E00E94A2
:1049E000EB1882E10E94EB1881E80E94EB1887EF38
:1049F0000E94E71D80E20E94EB1880EC0E94E71DF8
:104A000083E20E94EB1881EC0E94E71D80E10E9486
:104A1000EB1885EC0E94E71D8EE30E94EB1888E2FC
:104A20000E94EB1887EC0E94E71D86E80E94EB18B5
:104A300086E30E94E71D88E40E94EB188AE30E9447
:104A4000E71D85E50E94EB1881EB0E94E71D80E0E1
:104A50000E94EB1888E10E94EB1886EB0E94E71D8C
:104A600088E00E94EB1882E80E94EB1887E20E941F
:104A7000EB1882EF0E94E71D80E00E94EB1886E2AF
:104A80000E94E71D81E00E94EB1880EE0E94E71D66
:104A90008FE00E94EB1881E30E94EB188BE20E94EA
:104AA000EB188CE00E94EB188EE00E94EB1888E077
:104AB0000E94EB188EE40E94EB1881EF0E94EB1825
:104AC00087E30E94EB1887E00E94EB1880E10E94C8
:104AD000EB1883E00E94EB188EE00E94EB1889E04F
:104AE0000E94EB1880E00E94EB1881EE0E94E71D07
:104AF00080E00E94EB188EE00E94EB1884E10E9497
:104B0000EB1883E00E94EB1881E10E94EB1887E02C
:104B10000E94EB1881E30E94EB1881EC0E94EB18D5
:104B200088E40E94EB1888E00E94EB188FE00E9456
:104B3000EB188CE00E94EB1881E30E94EB1886E3EF
:104B40000E94EB188FE00E94EB1881E10E94E71DA4
:104B500068E770E080E090E00E94CE2189E20E9448
:104B6000E71D8CE20E94E71D1092890210928802D4
:104B700010928E02809196029091970290937B0200
:104B800080937C022091B0023091B10240E451E068
:104B900060E070E080E090E00E94231D88E690E0F5
:104BA0000E94701C2091A4023091A502032E000CDB
:104BB000440B550B69E771E0CE01019628873987D0
:104BC0004A875B870E945420288539854A855B8502
:104BD00060E070E0CE0101960E94991D89819A8162
:104BE0000E9453302091980230919902032E000CBC
:104BF000440B550B63E871E0CE0101962887398795
:104C00004A875B870E945420288539854A855B85C1
:104C100068E270E0CE0101960E94991D89819A8117
:104C20000E94533020919C0230919D02032E000C73
:104C3000440B550B61E971E0CE0101962887398755
:104C40004A875B870E945420288539854A855B8581
:104C50006CE370E0CE0101960E94991D89819A81D2
:104C60000E94533020919A0230919B02032E000C37
:104C7000440B550B60EA71E0CE0101962887398715
:104C80004A875B870E945420288539854A855B8541
:104C900060E570E0CE0101960E94991D89819A819C
:104CA0000E94533060ED77E080E090E00E94CE21DA
:104CB000809196029091970290937B0280937C0260
:104CC0002091B0023091B10240E451E060E070E028
:104CD00080E090E00E94231DE2EDF2E0119211923B
:104CE00025E0E235F207D1F788E690E00E94701CDB
:104CF0008091960290919702092E000CAA0BBB0B93
:104D00008F3F3FEF9307A307B30721F481E0809320
:104D10008E0206C090937D0280937E0210928E02D6
:104D20008091A8029091A90290937B0280937C02CB
:104D30006091BA027091BB0245E050E08CEA91E0CC
:104D40000E94D41B8091AA029091AB0290937B02A7
:104D500080937C026091BA027091BB0245E250E000
:104D60008FEA91E00E94D41B8091AC029091AD0239
:104D700090937B0280937C026091BA027091BB0297
:104D800045E450E082EB91E00E94D41B80919E02AA
:104D900090919F0290937B0280937C024091C2028B
:104DA0005091C30260E070E085EB91E00E94D41B5B
:104DB0004091C4025091C50260E070E08AEB91E03E
:104DC0000E94D41B4091C6025091C70260E070E07F
:104DD0008FEB91E00E94D41B4091C8025091C90210
:104DE00060E070E084EC91E00E94D41BC090C802A7
:104DF000D090C902A090BE02B090BF025EEFE52E37
:104E0000FF24FA948CE0C80ED11CEE9C9001EF9C1C
:104E1000300D300D11242115310509F09FC08EEFA2
:104E20009FEF88249924881A990A880C991C850177
:104E3000080F191FB6016E0D7F1DA401C8010E9445
:104E4000961AB6016E197F09A401C8010E94961A2C
:104E50009FEFE91AF90AE1E0EE16F104B1F640918C
:104E60006F0550917005609171057091720589E62A
:104E700095E00E94D22260916F057091700580913B
:104E80007105909172054FEF0E94EE1D40917305E0
:104E900050917405609175057091760587E695E0EF
:104EA0000E94D222609173057091740580917505FE
:104EB000909176054FEF0E94FA1D609177057091F1
:104EC00078058091790590917A054FEF0E94061E32
:104ED000E0917B05EE0FFF0BEC57FA4F60E080810D
:104EE00091810E94121E6FEF80918A050E94401EE0
:104EF0006FEF80918B050E946D1E40918D05209172
:104F00005505309156054203B001439F700D1124A1
:104F1000809153050E9464216FEF80918D050E945E
:104F20009A1E28EE3FE13093010120930001809109
:104F300069008C7F816080936900E89A3093030157
:104F40002093020180916900837F846080936900CF
:104F5000E99A3CE2232E33243394F5C081E090E0BB
:104F60002430310511F480E090E09195819591090C
:104F700058CFE09193050E2E000CFF0BE956FA4F27
:104F80008081807F803309F415C10CF0F4C080313A
:104F900009F404C1803209F407C181110BC0E0910A
:104FA0007B05EE0FFF0BEC57FA4F6FEF808191817D
:104FB0000E94121E103309F43AC10CF019C11031CD
:104FC00009F429C1103209F42CC111110BC0E09170
:104FD0007B05EE0FFF0BEC57FA4F602F808191811C
:104FE0000E94121E10929505F0919605FF83F11113
:104FF0003CC180917B05082E000C990B20917E0509
:1050000030917F058217930709F44DC380917B058A
:10501000082E000C990B2091800530918105821794
:10502000930709F08EC0C0907705D0907805E09086
:105030007905F0907A05C701B60120E431E040E03F
:1050400050E00E948C2E49015A01C701B60122E0AE
:1050500030E040E050E00E948C2EC0907305D0906C
:105060007405E0907505F0907605C21AD30AE40A3B
:10507000F50A809196029091970290937B0280931B
:105080007C0202ED12E0612C712CF80161917191AA
:105090008F01C3010E94E41EFFEF6F1A7F0A20E414
:1050A000621621E0720689F770908B05072D072C98
:1050B000000C110B8091A4029091A50290937B02A9
:1050C00080937C026091CC027091CD028091CE02DF
:1050D0009091CF0297FD0196959587952091D002EA
:1050E0003091D102260F371FAC010E94C21A809165
:1050F0005205082E000C990B8017910731F0609132
:105100009602709197020E947F1B709252056091E7
:105110009C0270919D02C8010E947F1B8091A40295
:105120009091A50290937B0280937C0292ED692E70
:1051300092E0792E00E010E080919505882309F433
:10514000E3C20E949A2361E070E080E090E00E9458
:10515000CE21E09192050E2E000CFF0BE956FA4F7E
:105160008081082F0F70182F107F8091950588235C
:1051700009F43ACFFECE803519F1803669F18034DA
:1051800009F018CF60916F057091700580917105DD
:10519000909172054FEF0E94EE1D0CCF6FEF809142
:1051A0008A050E94401E06CF6FEF80918B050E94FA
:1051B0006D1E00CF6FEF80918D050E949A1EFACE72
:1051C00060917305709174058091750590917605D5
:1051D0004FEF0E94FA1DEECE609177057091780531
:1051E0008091790590917A054FEF0E94061EE2CEDC
:1051F000103519F1103669F1103409F0F3CE6091D1
:105200006F05709170058091710590917205402F26
:105210000E94EE1DE7CE602F80918A050E94401EFD
:10522000E1CE602F80918B050E946D1EDBCE602F3A
:1052300080918D050E949A1ED5CE60917305709164
:1052400074058091750590917605402F0E94FA1D96
:10525000C9CE60917705709178058091790590911C
:105260007A05402F0E94061EBDCE103309F47FC080
:105270004CF4103109F45BC0103209F468C011110C
:105280000FC20AC0103509F44CC1103609F4B0C180
:10529000103409F005C2DEC000917B05AF81A00F7C
:1052A00080918205A7FD04C08A171CF4A82F01C0B5
:1052B000A0E0A0937B05AA0FBB0BAC57BA4F60E0F0
:1052C0008D919C910E94121E209180053091810544
:1052D00080917B05082E000C990B8217930709F427
:1052E000DFC1002E000C110B0217130709F0D8C103
:1052F000809196029091970290937B0280937C021A
:105300006091CC027091CD028091CA029091CB0243
:105310002091D0023091D102260F371F4091CE024A
:105320005091CF02480F591F0E94231DB9C180918F
:105330008A052F81820F8A3014F089E002C087FD30
:1053400080E080938A0560E00E94401EA9C18091A0
:105350008B053F81830F8A3014F089E002C087FDFE
:1053600080E080938B0560E00E946D1E99C12091C2
:105370008D05822F6AE00E94342E1F81011112C018
:10538000190F1A3014F019E002C017FD10E0822F37
:105390006AE00E94342E9AE0899F100D1124109328
:1053A0008D0511C0180F153014F014E002C017FD60
:1053B00010E0822F6AE00E94342EEAE01E9F900DDA
:1053C000112490938D0540918D05209155053091C4
:1053D00056054203B001439F700D1124809153057F
:1053E0000E946421602F80918D050E949A1EC090BA
:1053F0008D058C2D0C2C000C990B9093D90180936A
:10540000D8010C2C000CDD08EE08FF08F7FE14C0D4
:10541000E091DA01F091DB010190F081E02D6DE285
:105420008AED91E0099566277727CB016C197D09F4
:105430008E099F094AE003C04AE0C701B6010E94F5
:10544000F41E42E050E069EC71E08AED91E00E94C8
:10545000451F26C180906F0590907005A090710542
:10546000B090720524E0029FF0011124EC54FA4F31
:10547000C080D180E280F380C501B401A70196010C
:105480000E946A2ECA01B9012AE030E040E050E0F3
:105490000E946A2E9B01AC01C701B6010E94242E16
:1054A00024013501461A570A680A790AC501B40170
:1054B000A70196010E948C2ECA01B9012AE030E0B2
:1054C00040E050E00E948C2EAF81A60FAA3014F06D
:1054D000A9E002C0A7FDA0E00A2E000CBB0BA701AB
:1054E00096010E94AB2EAB01BC01440D551D661DFB
:1054F000771D40936F05509370056093710570930D
:10550000720589E695E00E94D22260916F05709144
:1055100070058091710590917205402F0E94EE1DDB
:10552000BFC08090730590907405A0907505B090F1
:10553000760534E0039FF0011124EC54FA4FC0804B
:10554000D180E280F380C501B401A70196010E94D9
:105550006A2ECA01B9012AE030E040E050E00E9422
:105560006A2E9B01AC01C701B6010E94242E2401C2
:105570003501461A570A680A790AC501B401A7011C
:1055800096010E948C2ECA01B9012AE030E040E069
:1055900050E00E948C2EAF81A60FAA3014F0A9E033
:1055A00002C0A7FDA0E00A2E000CBB0BA7019601CC
:1055B0000E94AB2EAB01BC01440D551D661D771D2D
:1055C0004093730550937405609375057093760549
:1055D00087E695E00E94D222609173057091740570
:1055E0008091750590917605402F0E94FA1D58C054
:1055F0008090770590907805A0907905B0907A0515
:1056000084E0089FF0011124EC54FA4FC080D1804F
:10561000E280F380C501B401A70196010E946A2EC1
:10562000CA01B9012AE030E040E050E00E946A2E51
:105630009B01AC01C701B6010E94242E2401350153
:10564000461A570A680A790AC501B401A7019601EA
:105650000E948C2ECA01B9012AE030E040E050E0FF
:105660000E948C2EAF81A60FAA3014F0A9E002C0D0
:10567000A7FDA0E00A2E000CBB0BA70196010E941B
:10568000AB2E640D751D861D971D60937705709375
:1056900078058093790590937A05402F0E94061E25
:1056A00010929605A6CCC0907705D0907805E09032
:1056B0007905F0907A05C701B60120E830E040E0B6
:1056C00050E00E948C2E49015A01C701B60122E028
:1056D00030E040E050E00E948C2E409073055090E6
:1056E00074056090750570907605421A530A640A35
:1056F000750A00E010E080919505811187CC8091BA
:105700009605882339F082CC80919605882309F488
:1057100067C017CD780185E0EE0CFF1C8A95E1F794
:105720006894F4F880E591E00E94C82260E08091DE
:105730006B050E94F8208F2D0E94CB228E2D0E9497
:10574000CB2261E080916B050E94F8200E94C72265
:1057500060E080916D050E94F82061E080916D0508
:105760000E94F820B301A20187E695E00E94D222B0
:1057700080918A05E9E0F0E0E81BF10987FDF395E7
:10578000E29DC001E39D900DF29D900D11240E94B9
:10579000C32100341105C9F480918A05E9E0F0E0E5
:1057A000E81BF10987FDF395CF0120918B05820F4E
:1057B000911D27FD9A959C01229DC001239D900D6E
:1057C000329D900D11240E94C321480C591C6A1C63
:1057D0007B1C0F5F1F4F0038110509F08CCF16CCD2
:1057E000B701A60187E695E00E94D2228091570575
:1057F00090915805209159052E3008F02E502770B1
:10580000206420937C0020917A00206420937A0009
:1058100020917A0026FDFCCF2091780040917900FC
:105820003091A4025091A50250937B0230937C02E8
:1058300030E0342B6091D0027091D1020E94562E3C
:10584000C9010E94562E8091CC029091CD02680F22
:10585000791FF301619371933F01C8010E94E41E17
:1058600080918A0529E030E0281B310987FD3395B6
:10587000229DC001239D900D329D900D11240E9408
:10588000C321C80CD91CEA1CFB1C0F5F1F4F00343E
:1058900031E0130709F050CC54CCCF92DF92EF9255
:1058A000FF920F931F93CF93DF93EAEDF1E0138202
:1058B000128288EE93E0A0E0B0E084839583A68313
:1058C000B78381E591E09183808385EC90E09587B3
:1058D000848784EC90E09787868780EC90E0918BBA
:1058E000808B81EC90E0938B828B82EC90E0958BA7
:1058F000848B86EC90E0978B868B118E128E138EA4
:10590000148EE7E7F2E024E030E0328F218F85E06B
:1059100090E0948F838F46E050E0568F458F10A221
:10592000178ECFE1D0E0D2A3C1A3A0E0B8EFB4A31B
:10593000A3A360EE77E076A365A34FEF57E050A7EF
:1059400047A34FE158EF52A741A740EE5FEF54A79E
:1059500043A70FEF1FEF16A705A710AB07A7D2AB02
:10596000C1ABB4ABA3AB76AB65AB50AF47AB40EFCD
:1059700050E052AF41AF34AF23AF28E030E0309376
:10598000B5022093B40243E150E05093B702409334
:10599000B6024BE950E05093B9024093B8024DE78C
:1059A00050E05093BB024093BA0246E450E050935B
:1059B000BD024093BC024AE550E05093BF024093C1
:1059C000BE024EE550E05093C1024093C002909356
:1059D000C3028093C20249E150E05093C502409354
:1059E000C4024DE250E05093C7024093C60241E426
:1059F00050E05093C9024093C8021092CB0210921B
:105A0000CA024DE650E05093CD024093CC0240E4F0
:105A100051E05093CF024093CE0240E850E05093C3
:105A2000D1024093D0024AE050E050935405409395
:105A30005305909356058093550580E094E090932C
:105A40005805809357058EE090E090935A05809317
:105A500059058FE090E090935C0580935B0530934F
:105A60005E0520935D058FE5E82E85E0F82E82E146
:105A700090E0F7019183808391E6C92E95E0D92EBD
:105A800089E090E0F60191838083C3E6D5E081E16F
:105A900090E09983888305E615E080E190E0F801C5
:105AA0009183808348E050E06FE070E087E695E006
:105AB0000E94A022F60140815181F701608171812D
:105AC00089E695E00E94A022F80120813181888139
:105AD00099810BE615E0F80180839183CDE6D5E04E
